:020000040000FA
:0600000048EF01F01200C0
:020006000000F8
:08000800DACFE4FFE2CFDAFFDA
:10001000E9CFE4FFEACFE4FFF6CFE4FFF7CFE4FF58
:10002000F5CFE4FFF3CFE4FFF4CFE4FFFACFE4FF32
:1000300000EE00F0020EE80403E3EECFE4FFFBD78E
:1000400000EE02F0000EE80403E3EECFE4FFFBD77E
:10005000E652F292890E836ED00EE66E070EE66EC1
:1000600082D8E552E552090E836EC80EE66EE66A46
:100070007AD8E552E552890E836EC80EE66EE66ABE
:1000800072D8E552E552090E836EC80EE66EE66A36
:100090006AD8E552E552890E836EC80EE66EE66AAE
:1000A00062D8E552E552E55200EE01F0000EE80498
:1000B00003E3E5CFEDFFFBD700EE01F0020EE8040D
:1000C00003E3E5CFEDFFFBD7E5CFFAFFE5CFF4FF84
:1000D000E5CFF3FFE5CFF5FFE5CFF7FFE5CFF6FF7F
:1000E000E5CFEAFFE5CFE9FFE5CFDAFF1100938026
:1000F000956AF288F19CF28E4C0E836EE80EE66EE5
:10010000030EE66E30D8E552E5524A0E836EE80ED5
:10011000E66E030EE66E27D8E552E552490E836E71
:10012000E80EE66E030EE66E1ED8E552E552610E4D
:10013000836EE80EE66E030EE66E15D8E552E552C4
:10014000510E836EE80EE66E030EE66E0CD8E55295
:10015000E552490E836EE80EE66E030EE66E03D896
:10016000E552E552C9D7D9CFE6FFE1CFD9FF020E5C
:10017000E126D950FD0FE96EFF0EDA20EA6EEE504F
:10018000ED101DE0DE6ADD6AD9CFE9FFDACFEAFFC4
:10019000320ED880EE54000EED5408E3000000004B
:1001A0000000DF2A010E01E3DB2AEED70000000089
:1001B0000000FD0EDB06FE0E01E2DB06DAD7020EC2
:1001C000E15C02E2E16AE552E16EE552E7CFD9FF78
:0201D00012001B
:0E01D200060EF66E000EF76E000EF86E0001BF
:1001E0000900F550656F0900F550666F03E165671A
:1001F00001D03DD00900F550606F0900F550616FE6
:100200000900F550626F09000900F550E96E090018
:10021000F550EA6E090009000900F550636F090006
:10022000F550646F09000900F6CF67F0F7CF68F06A
:10023000F8CF69F060C0F6FF61C0F7FF62C0F8FF59
:100240000001635302E1645307E00900F550EE6ECC
:100250006307F8E26407F9D767C0F6FF68C0F7FFE5
:1002600069C0F8FF00016507000E665BBFD712008A
:10027000000EF36E00EE00F0080E01D81200EA60E6
:1002800002D0EE6AFCD7F350E9601200EE6AFCD7A8
:1002900013EE00F023EE00F0F86A019CE9EC00F0A8
:0C02A00056EC01F077EC00F0FBD71200E8
:0202AC0012003E
:020000040030CA
:010002001EDF
:010003001EDE
:010005008179
:010006008178
:00000001FF
