:020000040000FA
:0600000017EF01F01200F1
:020006000000F8
:08000800DACFE4FFE2CFDAFFDA
:10001000E9CFE4FFEACFE4FFF6CFE4FFF7CFE4FF58
:10002000F5CFE4FFF3CFE4FFF4CFE4FFFACFE4FF32
:1000300000EE00F0020EE80403E3EECFE4FFFBD78E
:1000400000EE04F0000EE80403E3EECFE4FFFBD77C
:10005000E652F292890E836EC80EE66EF0EC00F066
:10006000E552090E836E140EE66EF0EC00F0E552D8
:10007000890E836E140EE66EF0EC00F0E552090E68
:10008000836E140EE66EF0EC00F0E552890E836E7E
:10009000140EE66EF0EC00F0E552E55200EE03F0CF
:1000A000000EE80403E3E5CFEDFFFBD700EE01F01F
:1000B000020EE80403E3E5CFEDFFFBD7E5CFFAFF3F
:1000C000E5CFF4FFE5CFF3FFE5CFF5FFE5CFF7FF91
:1000D000E5CFF6FFE5CFEAFFE5CFE9FFE5CFDAFFB1
:1000E00011009380956AF288F19CF28E4C0E836E1B
:1000F000640EE66EF0EC00F0E5524A0E836E640E7C
:10010000E66EF0EC00F0E552490E836E640EE66E8A
:10011000F0EC00F0E552610E836E640EE66EF0ECDA
:1001200000F0E552510E836E640EE66EF0EC00F0C6
:10013000E552490E836E640EE66EF0EC00F0E55277
:02014000D5D711
:0E014200060EF66E000EF76E000EF86E00014F
:100150000900F550656F0900F550666F03E16567AA
:1001600001D03DD00900F550606F0900F550616F76
:100170000900F550626F09000900F550E96E0900A9
:10018000F550EA6E090009000900F550636F090097
:10019000F550646F09000900F6CF67F0F7CF68F0FB
:1001A000F8CF69F060C0F6FF61C0F7FF62C0F8FFEA
:1001B0000001635302E1645307E00900F550EE6E5D
:1001C0006307F8E26407F9D767C0F6FF68C0F7FF76
:1001D00069C0F8FF00016507000E665BBFD712001B
:1001E000FF0EE350036EEF0E01D0F30EE76EE72E25
:1001F000F7EF00F00C0E026EE76AE72EFDEF00F05D
:0E020000022EFCEF00F0032EF5EF00F01200CE
:02020E00000EE0
:10021000F36E00EE00F0080E01D81200EA6002D082
:0E022000EE6AFCD7F350E9601200EE6AFCD7DC
:02022E0013EECD
:1002300000F023EE00F0F86A019CA1EC00F025EC40
:0A02400001F071EC00F0FBD7120092
:02024A001200A0
:020000040030CA
:010002001EDF
:010003001EDE
:010005008179
:010006008178
:00000001FF
