:020000040000FA
:06000000BAEF00F012004F
:0A00060001009201000060000000FC
:040010000C000000E0
:0C001400060EF66E000EF76E000EF86E81
:1000200000010900F550716F0900F550726F03E18E
:10003000716701D03DD00900F5506C6F0900F55093
:100040006D6F0900F5506E6F09000900F550E96EFB
:100050000900F550EA6E090009000900F5506F6FBC
:100060000900F550706F09000900F6CF73F0F7CF63
:1000700074F0F8CF75F06CC0F6FF6DC0F7FF6EC07E
:10008000F8FF00016F5302E1705307E00900F550DB
:10009000EE6E6F07F8E27007F9D773C0F6FF74C011
:1000A000F7FF75C0F8FF00017107000E725BBFD744
:0200B00012003C
:0E00B200010E936E956A0A0E00016BAF02D02C
:1000C000D89003D06A5D000E6B592AE2600E6A2553
:1000D000E96E000E6B21EA6EEF50836E0F0EE66E36
:1000E00093EC00F0E55281B016D00001800E6B1544
:1000F00012E1600E6A25E96E000E6B21EA6EEF5088
:10010000836E0F0EE66E93EC00F0E55200016A0775
:10011000000E6B5BEAD700016A2B000E6B23CCD775
:060120006A6B6B6BC9D78E
:0A012600FF0EE350036EEF0E01D050
:10013000F30EE76EE72E9AEF00F00C0E026EE76A00
:10014000E72EA0EF00F0022E9FEF00F0032E98EFB5
:0401500000F01200A9
:0C015400000EF36E00EE00F0080E01D863
:100160001200EA6002D0EE6AFCD7F350E960120098
:04017000EE6AFCD760
:0C01740013EE00F023EE00F0F86A019C8E
:100180000AEC00F0C8EC00F059EC00F0FBD71200CC
:0201900012005B
:0C0192003F065B4F666D7D077F6F00002D
:020000040030CA
:0100000000FF
:010001000CF2
:010002000EEF
:010003001EDE
:010005008179
:010006008178
:00000001FF
