:020000040000FA
:06000000E9EF00F0120020
:020006000000F8
:08000800956A838483928390C2
:10001000839A83988386E80EE66E030EE66E44D8D4
:10002000E552E552839483828390839A83988386F2
:10003000E80EE66E030EE66E37D8E552E55283947D
:1000400083928380839A83988386E80EE66E030EFC
:10005000E66E2AD8E552E552839483928380838AA0
:1000600083988396E80EE66E030EE66E1DD8E55281
:10007000E552839483928380839A83888396E80EE3
:10008000E66E030EE66E10D8E552E5528394839235
:100090008380839A83988386E80EE66E030EE66E6D
:1000A00003D8E552E552B1D7D9CFE6FFE1CFD9FF6A
:1000B000020EE126D950FD0FE96EFF0EDA20EA6E3E
:1000C000EE50ED101DE0DE6ADD6AD9CFE9FFDACF30
:1000D000EAFF320ED880EE54000EED5408E3000023
:1000E00000000000DF2A010E01E3DB2AEED700004A
:1000F00000000000FD0EDB06FE0E01E2DB06DAD793
:10010000020EE15C02E2E16AE552E16EE552E7CF00
:04011000D9FF120001
:0C011400060EF66E000EF76E000EF86E80
:1001200000010900F550656F0900F550666F03E1A5
:10013000656701D03DD00900F550606F0900F550AA
:10014000616F0900F550626F09000900F550E96E12
:100150000900F550EA6E090009000900F550636FC7
:100160000900F550646F09000900F6CF67F0F7CF7A
:1001700068F0F8CF69F060C0F6FF61C0F7FF62C0B9
:10018000F8FF0001635302E1645307E00900F550F2
:10019000EE6E6307F8E26407F9D767C0F6FF68C040
:1001A000F7FF69C0F8FF00016507000E665BBFD767
:0201B00012003B
:0E01B200000EF36E00EE00F0080E01D81200F1
:1001C000EA6002D0EE6AFCD7F350E9601200EE6AF2
:0201D000FCD75A
:0E01D20013EE00F023EE00F0F86A019C8AECB8
:0E01E00000F0F7EC00F004EC00F0FBD712008A
:0201EE001200FD
:00000001FF
