:020000040000FA
:06000000BEEF00F012004B
:020006000000F8
:08000800060EF66E000EF76E05
:10001000000EF86E00010900F550656F0900F550FB
:10002000666F03E1656701D03DD00900F550606F50
:100030000900F550616F0900F550626F0900090071
:10004000F550E96E0900F550EA6E09000900090053
:10005000F550636F0900F550646F09000900F6CF91
:1000600067F0F7CF68F0F8CF69F060C0F6FF61C0C5
:10007000F7FF62C0F8FF0001635302E1645307E039
:100080000900F550EE6E6307F8E26407F9D767C020
:10009000F6FF68C0F7FF69C0F8FF00016507000EB2
:0600A000665BBFD71200F1
:0A00A600956A838483928390839A05
:1000B00083988386640EE66E97EC00F0E552839495
:1000C00083828390839A83988386640EE66E97EC8E
:1000D00000F0E552839483928380839A8398838689
:1000E000640EE66E97EC00F0E55283948392838071
:1000F000838A83988396640EE66E97EC00F0E5524F
:10010000839483928380839A83888396640EE66EB9
:1001100097EC00F0E552839483928380839A8398CE
:0E0120008386640EE66E97EC00F0E552BDD7C4
:02012E00FF0EC2
:10013000E350036EEF0E01D0F30EE76EE72E9EEF55
:1001400000F00C0E026EE76AE72EA4EF00F0022E1C
:0C015000A3EF00F0032E9CEF00F0120063
:04015C00000EF36E30
:1001600000EE00F0080E01D81200EA6002D0EE6A3C
:0C017000FCD7F350E9601200EE6AFCD7E7
:04017C0013EE00F08E
:1001800023EE00F0F86A019C04EC00F0CCEC00F0E7
:0801900053EC00F0FBD7120054
:02019800120053
:00000001FF
