:020000040000FA
:06000000D1EF00F0120038
:020006000000F8
:08000800956A210E836EE80EDB
:10001000E66E030EE66E30D8E552E552110E836EA1
:10002000E80EE66E030EE66E27D8E552E552090E9D
:10003000836EE80EE66E030EE66E1ED8E552E552BC
:100040000C0E836EE80EE66E030EE66E15D8E552D2
:10005000E5520A0E836EE80EE66E030EE66E0CD8CD
:10006000E552E552090E836EE80EE66E030EE66E6B
:1000700003D8E552E552C9D7D9CFE6FFE1CFD9FF82
:10008000020EE126D950FD0FE96EFF0EDA20EA6E6E
:10009000EE50ED101DE0DE6ADD6AD9CFE9FFDACF60
:1000A000EAFF320ED880EE54000EED5408E3000053
:1000B00000000000DF2A010E01E3DB2AEED700007A
:1000C00000000000FD0EDB06FE0E01E2DB06DAD7C3
:1000D000020EE15C02E2E16AE552E16EE552E7CF31
:0400E000D9FF120032
:0C00E400060EF66E000EF76E000EF86EB1
:1000F00000010900F550656F0900F550666F03E1D6
:10010000656701D03DD00900F550606F0900F550DA
:10011000616F0900F550626F09000900F550E96E42
:100120000900F550EA6E090009000900F550636FF7
:100130000900F550646F09000900F6CF67F0F7CFAA
:1001400068F0F8CF69F060C0F6FF61C0F7FF62C0E9
:10015000F8FF0001635302E1645307E00900F55022
:10016000EE6E6307F8E26407F9D767C0F6FF68C070
:10017000F7FF69C0F8FF00016507000E665BBFD797
:0201800012006B
:0E018200000EF36E00EE00F0080E01D8120021
:10019000EA6002D0EE6AFCD7F350E9601200EE6A22
:0201A000FCD78A
:0E01A20013EE00F023EE00F0F86A019C72EC00
:0E01B00000F0DFEC00F004EC00F0FBD71200D2
:0201BE0012002D
:00000001FF
